:100000000C947C030C94C3030C94C3030C94C3039F
:100010000C94C3030C94C3030C94C3030C94C30348
:100020000C94C3030C94C3030C944F170C948B16BD
:100030000C94E3220C94C3030C94C3030C94C303E9
:100040000C94C3030C94C3030C94C3030C94C30318
:100050000C94C3030C9496220C94C3030C94C30316
:100060000C94C3030C94C3030C94C3030C94C303F8
:100070000C94C3030C94C3030C94C3030C94C303E8
:100080000C94C3030C94C3030C94C3030C94C303D8
:100090000C94C3030C94C3030C94C3030C94C303C8
:1000A0000C94C3030C94C3030C94C3033E0952097C
:1000B00058098E099F09AA09B609C509A80ACC09D9
:1000C000F3091D0A570A5A0A5F105F109210921026
:1000D00024114211881288124D11C011D311D3116D
:1000E0009114B8146D16B8146D16041527156D16F5
:1000F0002816381664196419761976196D19761947
:1001000076197619641964197219761976197219A3
:1001100000047F3F1F643214643214783C1E1E14A6
:100120000A05FD377A585A000004E6D6B4460200A4
:10013000210116000000742FE5A3E000D200935DBA
:10014000003D8889C65436C3174FE4E46671E5DD87
:1001500026EB1A55C80FE79A043666DE2B70A07A94
:1001600023E487C120F3FC78F2064CE19C8D7EFAF3
:10017000B05C417C6946FEB584328CDB3EB8E562FA
:1001800066D768FFE21B4A7FD81400FA7FF69D8885
:100190004EAF66BF11C1AD2993D9027FC4F97B640C
:1001A00088E015872D1D4548C9EA02824E05B7052E
:1001B0006ED476FAB3882F5D013EB8C335AF7D4467
:1001C00005551239120AF36A577B9DBFF5BDFC2B0A
:1001D000092A88000000C1AB8179211D2519000181
:1001E000AF01D301000016225C23B1C467FB0200FB
:1001F00000000004595A05010902A1018502090104
:10020000A1000509190129051500250195057501AC
:1002100081029501750381010501093009311581BC
:10022000257F95027508810609381581257F95017E
:1002300075088106050C0A38021581257F95017520
:10024000088106C0C005010980A101850319012AA2
:10025000B700150126B700950175108100C0050C87
:100260000901A101850419012AA002150126A00295
:10027000950175108100C00660FF0961A101096246
:10028000150026FF009520750881020963150026D8
:10029000FF00952075089102C005010906A101051E
:1002A0000719E029E71500250195087501810295D8
:1002B00001750881010507190029FF150026FF00B7
:1002C0009506750881000508190129059505750130
:1002D0009102950175039101C009025B00030100C1
:1002E000A0FA090400000103010100092111010025
:1002F000012240000705810308000A0904010002E9
:1003000003000000092111010001222200070582DB
:100310000320000107050303200001090402000176
:10032000030000000921110100012281000705845A
:100330000320000A120100020000000866667266CF
:100340000100010203011C037600690061006C00DA
:100350003A00660036003400630032006200330069
:100360006300000010035000650065002D0054007C
:1003700077006F0000000E0350006100620069000A
:100380006C006500000004030904AA00A900010034
:100390000100010001000100010059005A005B004A
:1003A0005C005D005E005F0060000100010024034E
:1003B00000000200020020030000030001002503EA
:1003C0000000040002000A030722050001002603C2
:1003D0000000060002000C030000070002002203D8
:1003E00000000800010027030000090002000E03BE
:1003F000E2210A0002001003E2210B0002001203B6
:10040000E2210C0002001403E2210D000200160399
:10041000E2210E0002001803E2210F0002001A037D
:10042000E221100002001C03E221110002001E0361
:10043000E2211200020028030000130002002A0338
:10044000000000010101010101010101020202029B
:10045000020202020203030303030303030404046E
:100460000404040405050505050606060606070737
:1004700007070708080808090909090A0A0A0B0BEF
:100480000B0C0C0C0D0D0D0E0E0E0F0F0F1010118E
:100490001111121213131414151516161717181814
:1004A00019191A1A1B1B1C1D1D1E1E1F202021227C
:1004B00022232424252626272829292A2B2C2D2DC2
:1004C0002E2F30313232333435363738393A3B3CDF
:1004D0003D3E3F404142434445464748494A4C4DD2
:1004E0004E4F50515354555658595A5B5D5E5F619B
:1004F0006264656668696B6C6D6F7072737577782E
:100500007A7B7D7E8082838587888A8C8E8F91938B
:100510009596989A9C9EA0A2A3A5A7A9ABADAFB1B2
:10052000B3B5B7BABCBEC0C2C4C6C9CBCDCFD1D497
:10053000D6D8DBDDDFE2E4E7E9EBEEF0F3F5F8FA3D
:10054000FDFFFFAA7F55402223252628292A2C2D8E
:100550002F3032333536383A3B3D3E4042434547F3
:10056000494A4C4E5051535557595A5C5E6062642B
:100570006668696B6D6F71737577797B7D7F818339
:100580008587898A8C8E90929496989A9C9E9FA13A
:10059000A3A5A7A8AAACAEAFB1B3B4B6B8B9BBBC5B
:1005A000BEBFC1C2C3C5C6C7C9CACBCCCDCED0D1D0
:1005B000D2D2D3D4D5D6D7D7D8D9D9DADADBDBDBC8
:1005C000DCDCDCDCDCDDDDDDDDDCDCDCDCDCDBDB69
:1005D000DBDADAD9D9D8D7D7D6D5D4D3D2D2D1D0BD
:1005E000CECDCCCBCAC9C7C6C5C3C2C1BFBEBCBBBA
:1005F000B9B8B6B4B3B1AFAEACAAA8A7A5A3A19F32
:100600009E9C9A98969492908E8C8A8987858381F5
:100610007F7D7B79777573716F6D6B6968666462D6
:10062000605E5C5A5957555351504E4C4A494745A4
:100630004342403E3D3B3A3836353332302F2D2C45
:100640002A2928262523220000000000000000009F
:10065000000000000000000000000000000000009A
:1006600000000000000000000000007E0F00D4FF2A
:10067000FFFFC70000007800000000000000002A13
:100680002B28000000000000000000000000000017
:10069000000029000000002C1E34202122243426D2
:1006A00027252E362D3738271E1F202122232425CB
:1006B000263333362E37381F0405060708090A0B80
:1006C0000C0D0E0F101112131415161718191A1BF2
:1006D0001C1D2F3130232D350405060708090A0B90
:1006E0000C0D0E0F101112131415161718191A1BD2
:1006F0001C1D2F3130354C0011241FBECFEFDAE026
:10070000DEBFCDBF04B603FE27C08091B103909138
:10071000B203A091B303B091B4038730904BA740CC
:10072000B04BD1F41092B1031092B2031092B30304
:100730001092B40314BE84B7877F84BF0FB6F894B9
:10074000A89580916000886180936000109260009D
:100750000FBEE0E0F8E3099511E0A0E0B1E0E0EAC7
:10076000F8E602C005900D92A63AB107D9F723E04A
:10077000A6EAB1E001C01D92A13BB207E1F70E94D9
:10078000C5030C944E340C940000CF93DF93CDB787
:10079000DEB7E4970FB6F894DEBF0FBECDBF84B7C7
:1007A000877F84BF0FB6F894A89580916000886118
:1007B00080936000109260000FBE90E080E80FB65A
:1007C000F89480936100909361000FBE85B78068B4
:1007D00085BF85B7806885BF84E59DE19093A701BB
:1007E0008093A6010E94852E0E9434260E94CF1677
:1007F0000E94EE168091E20084608093E20078947B
:100800008091C5018823A1F01091E9001F7090919B
:10081000EC00892F817090FD80E8182B1092E90080
:100820008091E80083FD0E94A9131F701093E900D6
:1008300082E084BD93E095BD9AEF97BD80936E00F2
:100840000E945E2F811102C00E944F2F87E90E94F3
:10085000991D83E90E94991D82E90E94991D1092B9
:10086000B4011092AA010E94EF1F811102C00E94E0
:10087000FA1F82E090E00E9459338093B0010E94F9
:10088000DE1F9093A9018093A8010E94B01D2FEF55
:1008900036E741E0215030404040E1F700C0000021
:1008A0000E94B01D8091B40180FF08C06FEF7FEF00
:1008B00080E090E00E948B330E94852283E090E0EC
:1008C0000E9459330E9452198091AB01811133C0AB
:1008D0000E94EF1F811104C00E94FA1F0E94EE27A0
:1008E00088E090E00E94613360935B0370935C0347
:1008F00080935D0390935E036E7F71F40E94EE27F8
:1009000088E090E00E94613360935B0370935C0326
:1009100080935D0390935E030E94A727109251037A
:1009200080915B0380FF04C060E086950E9483296C
:1009300081E08093AB0124982C9A6E98769A83B1CB
:1009400082958170669B02C092E001C090E0892B85
:100950008093AE0180E091E0909332038093310365
:10096000E8E16E2E712CF0E12F2EA0E13A2E8E01DF
:100970000F5F1F4F6E0181E2C80ED11C8091C5012F
:10098000853009F053C072E1F72E8091C5018530A2
:1009900009F048C08091C501843011F110923503EF
:1009A00090E40FB6F894A895609260000FBE909303
:1009B000600083B7817F846083BF83B7816083BF1A
:1009C0007894889583B78E7F83BF0FB6F894A895E7
:1009D00080916000886180936000109260000FBE7B
:1009E0008091C401882309F4D0CF0E94B01D80916A
:1009F000B401882309F4C9CF29BCF9BC09B400FEAD
:100A0000FDCF8091D8008F7D8093D8008091E00049
:100A100082608093E0008091E00081FDFCCF0E9425
:100A20008919B3CF0E9489190E9452230E94B01DD8
:100A300081110E94CB229091B4018091B10189274C
:100A400021F180FD06C081FF20C081E062E0F62E2A
:100A500003C080E0FF24F3948BA71CA69F2181E0B4
:100A600009F480E08DA70E94D7228160782F9FA78C
:100A70008EA74BA55CA56DA58FA50E94A630809181
:100A8000B101F826F092B10110C08FEF88AB89ABAD
:100A90001AAA0E94D7228160782F9CAB8BAB48A901
:100AA00059A96AA98CA90E94A63080915103882374
:100AB00009F498C080915003E0915B03E695E81B30
:100AC000E0934C03823059F4F0E0E25EFE4FE49193
:100AD000EE2EF12C5DEBA52E5DE2B52E5EC08630CC
:100AE00059F4F0E0E55EFE4FE491EE2EF12C4DEA74
:100AF000A42E4DE2B42E51C0893061F4E695F0E0A9
:100B0000E85EFE4FE491EE2EF12C36E4A32E3DE29A
:100B1000B32E43C08F3061F4E695F0E0EB5EFE4FFC
:100B2000E491EE2EF12C22EEA22E2CE2B22E35C054
:100B3000853159F4F0E0EE5EFE4FE491EE2EF12C9B
:100B400091E9A92E9CE2B92E28C08831B1F08332F8
:100B500049F4E0E1F1E0E590F4908DE6A82E8DE215
:100B6000B82E1BC0843289F0A0EDEA2EA7E0FA2E41
:100B7000B7E7AB2EBBE2BB2E10C0E8E2EE2EF12CA5
:100B8000F2E1AF2EFCE2BF2E08C064EFE62EFF2498
:100B9000F39479EDA72E7BE2B72E80914D03882345
:100BA00061F010924D030E94D72290934B038093E3
:100BB0004A0310924F0310924E030E94D722E091F5
:100BC0004A03F0914B038E1B9F0B8F3F9F4750F4BE
:100BD000EE0EFF1EF0924B03E0924A038AE493E08C
:100BE000F50109958091AE01E82FEE0FEE0FE0932D
:100BF000AE0183B184FB442440F8512C669B03C0B2
:100C000082E090E002C080E090E0842995298E2B5C
:100C10008093AE018F70E82FF0E0EF5CFE4F908183
:100C20008091AD01890F8093AD0184305CF080919B
:100C3000AC018F5F8093AC0160E080E00E94DD2E0C
:100C400021E001C020E08091AD018D3F54F48091FE
:100C5000AC0181508093AC0161E080E00E94DD2E08
:100C600021E08091AD01082E000C990B64E070E04A
:100C70000E94BD338093AD0121110E94CB2286E0FA
:100C8000E4E4F3E0D80101900D928A95E1F7A09099
:100C90004603B0904703E0904803F0904903109258
:100CA0004603109247031092480310924903A11083
:100CB00003C0BB2009F45DC08091420390914303BF
:100CC0000E94BC22AC0190913E03992339F02091FF
:100CD000150130E02417350758F04BC0209116015C
:100CE000FAE02F9F900111242417350718F041C016
:100CF0009F3F19F09F5F90933E03AA2061F00E94EE
:100D0000C02A1A1414F491E001C09FEF899F802D2E
:100D1000112480934603BB2061F00E94C02A1B145B
:100D200014F491E001C09FEF899F802D11248093DE
:100D30004703309146033323E1F0209147032223F8
:100D4000C1F045EB3403C0011124992319F09093AD
:100D5000460303C081E08093460335EB2303C001C3
:100D60001124992319F09093470303C081E08093E5
:100D70004703E11003C0FF2009F45DC080914003E8
:100D8000909141030E94BC22AC0190913D039923B4
:100D900039F02091110130E02417350758F04BC08D
:100DA000209112018AE0289F900111242417350711
:100DB00018F041C09F3F19F09F5F90933D03EE20D4
:100DC00061F00E94872A1E1414F491E001C09FEF85
:100DD000899F802D112480934803FF2061F00E9499
:100DE000872A1F1414F491E001C09FEF899F802D82
:100DF000112480934903309148033323E1F020917B
:100E000049032223C1F045EB3403C0011124992387
:100E100019F09093480303C081E08093480335EBB9
:100E20002303C0011124992319F09093490303C0AF
:100E300081E0809349038091460381110BC080912A
:100E40004703811107C080914803811103C080913D
:100E5000490381110E94D829AB82BC82ED82FE82B7
:100E600086E0F801A4E4B3E001900D928A95E1F7E1
:100E70000E9452239091AF01891721F00E945223C2
:100E80008093AF018091C501843009F077CD83E074
:100E90008093E9008091E80082FF70CD8091E800A6
:100EA00085FF21C00E94261881111BC050E2E52E4B
:100EB000F12C580109C08091F100F50181935F0187
:100EC000F1E0EF1AF10869F08091E80085FDF3CFB9
:100ED0008091E8008B778093E8000E942618882391
:100EE00099F391E001C090E08091E8008B778093C6
:100EF000E800992309F442CDE0903A02F0903B02D9
:100F00008981E114F10461F08E3F09F021C38A81E7
:100F1000833008F4A7C18550833008F019C3A2C1FB
:100F2000893009F4D9C0D0F4843009F45EC050F49B
:100F30008230A1F108F04AC0813009F007C31A825B
:100F400089E039C3863009F462C008F455C087309F
:100F500009F460C0883009F49FC0F8C2803109F4F8
:100F600022C180F48D3009F4C2C028F48C3009F01D
:100F7000EDC23A82EDC28E3009F4BDC08F3009F463
:100F8000E4C0E4C2823109F413C108F40FC1833113
:100F900009F436C18E3F09F465C1D8C28A81823016
:100FA00009F4FEC2833051F0813009F0CFC20E94B3
:100FB000CB229B838C837D836E83CAC280910D017B
:100FC00090910E01892B09F0F4C2C2C28A8182304D
:100FD00009F0BCC26B817C818D819E810E94F933B6
:100FE00086E290E00E946D33B3C24C816B818A81AE
:100FF0000E945C2E9D83DBC22D813E8132272327F8
:1010000032274C816B818A810E942B2EA1C20E94C3
:10101000E3269EC28A818138B1F050F4803809F00D
:1010200097C220E04B8160915D0380915C0331C0E9
:10103000823859F1833809F08BC220E040915E0379
:101040006C818B8126C060E08B810E9483299B810B
:1010500080915B03911111C08E7F80935B0310928E
:1010600051032FEF30E742E0215030404040E1F79C
:1010700000C000000E945E276BC2816080935B030A
:1010800060E086950E94832963C28B8180935F0311
:101090005FC20E94AD285CC28A81813891F030F431
:1010A000803809F055C280915E0385C2823889F08C
:1010B000833809F04DC280915C038B8380915D037E
:1010C0003CC180915B0380FF02C0869574C280E0C2
:1010D00072C280915F036FC260915B0370915C0389
:1010E00080915D0390915E030E94BA2731C283E034
:1010F0008A8387E460C2EA80FB80FE24EF24FE241A
:101100008C80912C8DE18816910408F021C2580141
:10111000C70187549F4F9501201B310B28153905B6
:1011200008F016C2E7E4EE16E3E0FE0628F40E949B
:101130005933F501848302C0F5011482FFEFEF1AE1
:10114000FF0A2FEFA21AB20AE3CF80910D0190910E
:101150000E01892B09F4FCC1EA80FB80FE24EF24F8
:10116000FE24AC80B12C3DE1A316B10408F0F0C11F
:101170004801C70187549F4F9401201B310B2A154A
:101180003B0508F0E5C147E4E41643E0F40620F42B
:10119000F40164810E946D33FFEFEF1AFF0A2FEF15
:1011A000821A920AE6CF0E94B726D2C184E08FC18C
:1011B000EA80FB80FE24EF24FE248C80912C3DE10C
:1011C0008316910408F0C4C15801C70187969501A0
:1011D000201B310B2815390508F0BAC140E1E4168F
:1011E000F10428F40E945933F501848302C0F5010B
:1011F0001482FFEFEF1AFF0A2FEFA21AB20AE5CF0F
:10120000EA80FB80FE24EF24FE24AC80B12C3DE17B
:10121000A316B10408F09CC140E1E416F10408F003
:1012200097C180E190E08E199F098A159B0508F40B
:101230008FC14801C70187969401201B310B2A15E5
:101240003B0508F085C1E0E1EE16F10420F4F4015D
:1012500064810E946D33FFEFEF1AFF0A2FEF821AAD
:10126000920AE8CFEA818E2F90E08E30910508F047
:101270006FC1FC01EA5AFF4F0C94F33388E0E9E2B6
:10128000F1E0D60101900D928A95E1F780E2F80134
:1012900011928A95E9F784E0898388E0F601DE01FE
:1012A000159632C184ED89831A821B821C8250C13B
:1012B0008C8190E0982F88272B81820F911D092E19
:1012C000000CAA0BBB0B45E0880F991FAA1FBB1F80
:1012D0004A95D1F7AC01BD01405E5F4F6F4F7F4F24
:1012E000481759076A077B0708F432C1843D910506
:1012F000A105B10508F02CC1453D510561057105F9
:1013000020F044ED50E060E070E0481B590BBC0158
:101310006E5D7E4FC8010E9440331AC1FB80EC8095
:1013200040E06E2D8F2D0E94022E99838A8341E02A
:101330006E2D8F2D0E94022E9B838C8309C12E81DE
:101340003F813227232732274D816C818B810E9478
:10135000D12DFEC040E250E06FEF70E0C8010E9466
:10136000473480910D018983EA82F2C081E090E0E8
:1013700090933B0280933A0282E390E09093B30112
:101380008093B2010E94D722E3C080910D0189832E
:10139000EA828091B2010FC1EB80FC8040E250E014
:1013A0006FEF70E0C8010E9447342AEA33E080E022
:1013B00090E0AC014E5F5F4F4132510508F0C8C06C
:1013C000F90165917491E616F70630F4F801E80F1B
:1013D000F91F71836083CA01285F3F4FF4E0223414
:1013E0003F0739F7B5C04B815C8122E434E08AEADB
:1013F00093E0FC01659174914617570729F0089610
:1014000028173907B1F7A2C0009709F49FC09C01C3
:101410002E5F3F4FF901459154914032510508F03C
:1014200095C0F90145915491FC01349665917491F0
:10143000CE0102960E943E3438C08B819C812AEAFC
:10144000E22E23E0F22EF7012591349182179307C3
:1014500049F028E0E20EF11C32E4E31634E0F30632
:1014600091F774C0E114F10409F470C0C701029649
:10147000FC01259134912D31310508F067C0FC0144
:1014800045915491F701349685919491BE016B5F1B
:101490007F4F0E943E340E945A26F701369685916E
:1014A0009491009711F0FC01099580E050C00E94D2
:1014B00076264EC08B81833061F0843051F18111EA
:1014C00047C080E2F80111928A95E9F788E08A83A3
:1014D0003FC06C818AE0F60111928A95E9F7683085
:1014E00068F4FAE06F9FB001112467597F4F4AE01A
:1014F00050E0C6010E94493380E001C08FEF89832C
:101500008AE0F601DE01129601900D928A95E1F7CC
:101510001FC06C818AE0FE013596D60101900D92C4
:101520008A95E1F7683068F42AE0629FB0011124DF
:1015300067597F4F4AE050E0C6010E94913380E036
:1015400001C08FEF89830E94852E02C08FEF8983AF
:101550008091C501843009F011CA8091E9008F7033
:101560002091EC00922F917020FD90E8F92EF82A3E
:1015700082E08093E9008091E80080FF0CC040E0A9
:1015800050E060E270E0C8010E9459188091E800C4
:101590008E778093E8008F2D8F708093E900EEC9DD
:1015A00086E290E00E9459331B821C821D828E834A
:1015B000CFCF8091B4018B83CBCF8F929F92AF928C
:1015C000BF92CF92DF92EF92FF920F931F93CF9330
:1015D000DF9300D000D0CDB7DEB77C01FC014381A2
:1015E0005481618180810E94D5238111DBC761E034
:1015F000C7010E9498308C01F7018281882309F489
:1016000081C0C80182519F45409708F097C08FEF75
:1016100093E00E94593381117FC05EEED52ED00E2B
:1016200009EB10E0DD2071F00115F4E01F0709F46B
:1016300073C0C8010E945933811101C0DA940F5F51
:101640001F4FF0CF19821A821B821C82AA24AA94EF
:1016500068012FEFC21AD20AC8010E945933898348
:101660001A82882309F458C0813009F046C0480125
:1016700082E0880E911CC6010E9459338A83882318
:1016800009F44AC09FEF980F933060F4680193E02B
:10169000C90ED11CC4010E9459338B8381112DC006
:1016A0008601D6CF843011F06401FACFC4010E94C4
:1016B0005933B82E6801E4E0CE0ED11CC801039660
:1016C0000E945933BB2041F1882331F1282F30E0AB
:1016D00021503109A29EA001A39E500D11248B2DF3
:1016E00090E00197840F951F0197D0F2EFE9FFE09A
:1016F0003197F1F700C00000F7CFCE0101960E94AC
:10170000BC2FCECF00318FE5180709F00EC381E062
:101710000E943B190E949E1380912802877009F451
:1017200041C7F7018281882309F43CC78091A90150
:1017300082FD38C782E00E94972034C70031FFE560
:101740001F0711F481E005C001312FE5120721F4D4
:1017500082E00E944719DECF8091250380FF6AC195
:101760000E94D7226C01F70182818823D9F18091F0
:10177000190182FF08C020E332E040E0B60180E0BA
:1017800090E00E946C250B31FCE51F0779F00C31CD
:101790002CE5120789F00A318CE51807A1F4809135
:1017A0001901982F909590FB80F909C0809119013B
:1017B00081608093190107C0809119018E7F809309
:1017C00019010E942F25C80190568115E0E29E075D
:1017D00020F0905E8115904180F510926102109288
:1017E000600228C1013E110521F4809119018F7E0C
:1017F00006C0053E110531F4809119018F7D80935B
:1018000019011BC0C8019056811520E2920720F0F3
:10181000905E8115904188F48091190182FF0AC180
:101820008091270381FD06C120E332E040E0B6014C
:1018300080E090E00E946C25FDC08091190180FF3E
:10184000F9C0F70182810832110538F40E31110513
:10185000B8F40430110578F4C9C00933110538F41F
:101860000D32110590F40B32110579F0BFC004362A
:10187000110559F0BBC09091250394FDB7C009C074
:101880009091250393FDB2C004C09091250392FD71
:10189000ADC0882309F4A3C020913D0280912C02A1
:1018A000982F922B392F3D7F79F11092610210927F
:1018B00060023091250331FD27C0F80143E0F69521
:1018C000E7954A95E1F7EE71FF27E25CFD4F98013D
:1018D0002F70332781E090E002C0880F991F2A956E
:1018E000E2F7809590952081318182239323918323
:1018F0008083A70160E0C8010E944D2580912C02E1
:101900008D7F0E946F2067C038E0F701A0E3B2E04E
:1019100001900D923A95E1F7109232021092340242
:101920001092330240916002509161020417150732
:10193000D1F53091250335FF36C04091190141FFA3
:1019400002C036FF30C040915E0250915F02B60186
:10195000641B750B40912203509123036417750794
:1019600010F521FF08C08091190180618093190151
:1019700082E00E94832080913D0285FF08C0809113
:10198000190180628093190180E20E948320609196
:10199000190166956170A7018091600290916102C2
:1019A0000E944D25B9CE969591702091190190FB1A
:1019B00021F9209319018D7F0E946F2010936102FD
:1019C00000936002D0925F02C0925E028091190182
:1019D00084608093190182E00E9497209DCE970138
:1019E00040E0B601C8010E946C2596CE882311F113
:1019F0001092610210926002033FFCE51F07D1F1D3
:101A000078F4083D8CE5180761F1093D9CE519075C
:101A100009F451C0073DECE51E0709F057C01BC093
:101A2000053FFCE51F07B9F180F1063F8CE518077B
:101A3000E1F14CC0033FFCE51F07E1F008F5083D6C
:101A40008CE5180771F0093D9CE51907A1F1073DE8
:101A5000ECE51E07B1F506E221EE41EE67ED7CE50F
:101A600005C007E225EE45EE68ED7CE5C7010E9462
:101A70005E2352CE06E221EE40EE63EF7CE5F6CF28
:101A8000053FFCE51F0739F060F407E225EE44EE60
:101A900064EF7CE5EBCF06E221EE42EE65EF7CE5FC
:101AA000E5CF063F8CE5180761F407E225EE46EE28
:101AB00066EF7CE5DBCF08E221E045EE69ED7CE5F1
:101AC000D5CFF7012281222309F46EC210922E0392
:101AD0000330FDE51F0758F40A3F2CE5120760F4B8
:101AE000C80182509C45449708F026C105C00136C4
:101AF0008DE5180709F020C10E94DE1F9093A9010F
:101B00008093A80100319CE5190709F4CAC008F0C8
:101B100041C00830FCE51F0709F4A4C0F0F404300C
:101B20008CE5180709F48CC068F40230ECE51E0758
:101B300009F482C003301C4509F0E7C08091A80178
:101B40008260E1C006302CE5120709F483C008F07A
:101B500085C08091A8018860D6C00C309CE519072B
:101B600009F490C068F40A30FCE51F0709F47EC050
:101B700008F084C00E9489198091A8018068C3C0C0
:101B80000E308CE5180709F481C008F086C08091FA
:101B9000A80194C00C3FECE51E0709F47BC038F5A2
:101BA00004312CE5120709F49AC058F402319CE57F
:101BB000190709F47AC008F07EC08091A8018F7BD4
:101BC000A2C00A3FFCE51F07F1F108F03FC0053154
:101BD0001C4509F09AC08091A80182FB222720F9B8
:101BE00091E0922790FB82F990FB83F98CC001155C
:101BF0009DE5190709F467C050F48091A9010E3FD3
:101C0000FCE51F07C1F108F05BC08D7F65C00230A5
:101C10008DE5180709F471C008F46DC001361D4543
:101C200009F073C08091A80184FB222720F991E07C
:101C3000922790FB84F967C08091A801816063C0FE
:101C40008091A80116C08091A90116C08091A901B8
:101C5000826042C08091A801806155C08091A80136
:101C6000806251C08091A80180644DC08091A8011C
:101C70008860846048C0826081602EC08091A80125
:101C80008E7F41C08091A8018D7F3DC08091A801C9
:101C9000877F39C08091A90114C08091A8018F7EEF
:101CA00032C08091A8018F7D2EC00E948919809139
:101CB000A8018F7728C08091A801877F8B7F23C0E0
:101CC0008D7F8E7F09C08091A901982F909591708A
:101CD0008E7F892B90FB81F98093A90116C00E9409
:101CE00089198091A80187FB222720F991E092278A
:101CF00090FB87F908C061E001C060E08EE090E0F1
:101D00000E946D3302C08093A8016091A8011091D8
:101D1000A90184E090E00E946D33612F82E290E09F
:101D20000E946D330E948919F7CC01319FE5190794
:101D300009F012CD82E0ECCC0631ECE51E0709F08B
:101D400049C021E080913D02982F9A7A3091240376
:101D500030FF04C0482F447409F090E031FF04C004
:101D6000482F417109F090E032FF04C0482F4878B5
:101D700009F090E033FF02C0827261F42223A1F0E7
:101D800081E0911101C080E08093B501992331F089
:101D900065E305C0222341F01092B50169E283EDAD
:101DA00091E00E940C2313C08091B501882311F0AB
:101DB00085E301C089E2E3EDF1E029ED31E09281B4
:101DC000891301C0128231962E173F07C1F70E9476
:101DD0000121A2CC80913D0282720C3CFCE51F07E0
:101DE00009F4C2C008F045C0063C9CE5190709F497
:101DF000A7C0D8F4033CFCE51F0709F497C030F4F2
:101E0000023C8CE5180709F46CC0D3C0043C9CE587
:101E1000190709F490C0053CECE51E0709F0C9C09C
:101E200041E759E26AE779E2A3C0093CFCE51F07F4
:101E300009F490C078F4073C9CE5190709F485C0C3
:101E4000083CECE51E0709F0B4C045E659E269E537
:101E500079E28EC00A3CFCE51F0709F480C00B3C08
:101E60002CE5120709F0A5C04CEC57E26DED77E2C6
:101E70007FC0013D8CE5180709F486C0A0F40E3C34
:101E8000ECE51E0709F47AC008F475C00F3C2CE598
:101E9000120709F476C0003D8CE5180709F089C0E7
:101EA0006EE089E079C0043D9CE5190709F472C031
:101EB00068F4023DFCE51F0709F469C0033D2CE509
:101EC000120709F076C061E088E16BC0053D8CE542
:101ED000180709F464C00D359DE5190709F41CCCF9
:101EE00068C080915B0380FF1BC08E7F80935B0383
:101EF00060915B0370915C0380915D0390915E0340
:101F00000E94BA2710925103EFEFF0E722E0E15070
:101F1000F0402040E1F700C000000E945E27FCCBAB
:101F2000816080935B0361E086953BC045EC59E29C
:101F30006EEC79E21DC04EEC59E265EC79E218C016
:101F40004AE759E261E779E213C049E559E265E6FB
:101F500079E20EC041E459E26DE479E209C04DE452
:101F600059E261E479E204C04DED57E26CEC77E2AE
:101F70000E94892FD1CB61E081E013C065E082E04F
:101F80000BC068E086E008C064E18FE005C067E14F
:101F900085E102C062E289E10E94772FBDCB61E05A
:101FA00083E20E948329B8CB0631FCE51F0709F4C0
:101FB000C9CEF7018281882389F10A35FDE51F0723
:101FC00041F150F401158CE51807A9F00E3D1C45B0
:101FD00029F50E94FA1FA0CB0B35EDE51E07D9F0BD
:101FE0000C351D45D9F48091A90182FB882780F921
:101FF00091E0892711C00E9489192FEF84E39CE0AA
:10200000215080409040E1F700C000000E948522EE
:1020100083CB81E001C080E00E94B420F70186817B
:1020200097810097B9F4F70182810081118188239B
:1020300049F0C8010E94A218D82E682FC8010E943A
:102040000C1904C0C8010E94DE18D82EB8018D2DCD
:102050000E94C7260E94441E182F092FF701B28044
:10206000C580C2943FE0C322809128028770B9F0F6
:10207000BB20A9F0892F807F803421F080E2810F7E
:10208000883068F08091A90182FD09C082E00E9439
:102090009720809128028770AA24A3948111A12CF3
:1020A000902E92942FE09222892D90E08C30910511
:1020B00008F02EC2FC01EC59FF4F0C94F333902F23
:1020C0009F70802F807FD92E19F0D29490EFD92263
:1020D000BB20A9F0DD2009F4FBC180E2810F88302C
:1020E00010F0111104C08D2D0E948A2005C080912E
:1020F0003C02D82AD0923C020E940121E9C1812FE2
:102100000E94B719DD2009F403C280E2810F8830F4
:1021100080F1112371F1D09480913C02D822D092A9
:102120003C022AC0902F9F70802F807FD92E803252
:1021300019F0D29480EFD822112321F0113009F444
:102140005CC067C08091A90182FF19C0BB2059F013
:10215000DD2029F08D2D0E948A200E94012180E03F
:102160000E94EF19D5C180E00E94B719DD2009F463
:10217000CFC18D2D0E9483200E940121C9C1BB20A7
:1021800001F1CC20D1F0F1E0CF1206C080912C02F9
:102190008D290E946F20BCC180912603823068F097
:1021A000C8120BC00E94642080912502D812D092E0
:1021B00025028D2D0E94B019ABC180912C028D2972
:1021C000F9CFCC2079F08091260321E0C21210C013
:1021D000823008F49DC180913D028D2109F498C19F
:1021E0000E943C210E9464208D2D0E94A91990C15B
:1021F0008230C0F3C812F6CF8BC1BB2029F085E036
:102200008C1508F485C1D5CF94E09C1508F480C1E5
:10221000EBCFBB20B1F0CC2061F220E0F701408190
:1022200051816281738184810E946F308091270384
:1022300081FD4EC1F701858180FF4AC18F70858382
:10224000B8CFC1104EC1D0CF802F869586958370B0
:1022500019F0813061F05CC1BB2021F0812F902FFB
:10226000937002C080E090E00E943C2357C1BB20E5
:1022700021F0812F902F937002C080E090E00E94A7
:1022800026234CC1812FBB2019F00E940F2B02C0C6
:102290000E94022A0E94D82941C1802F8370A1F593
:1022A000B1103AC1412F429546954770440F440FF3
:1022B000212F2F7030E0C901042E01C0880F0A942D
:1022C000EAF714FF08C02FE030E001C0220F4A9562
:1022D000EAF7209501C020E0302F3695369533700F
:1022E000323069F040F440916003313019F0822BB4
:1022F000842302C0842B822B0E9452190DC1282BEB
:10230000809160038227F8CFBB2019F0802F817065
:1023100001C08695882309F4FFC0412F4295469558
:102320004770440F440F212F2F7030E0C901042E55
:1023300001C0880F0A94EAF714FF08C02FE030E0CC
:1023400001C0220F4A95EAF7209501C020E0302F06
:10235000369536953370323051F070F44091CF019C
:10236000313019F0822B842308C0842B05C0282B20
:102370008091CF01822701C0822B0E943719CCC0E7
:10238000F02FFF70DF2EBB2039F08F2F0E944719EE
:10239000812F0E94B019C0C0812F0E94A9198D2DD4
:1023A0000E943B19B9C0123F11F128F4103F41F0CF
:1023B000113FA9F189C0133F01F1143F61F184C0BD
:1023C000BB2029F024E02C1508F4A2C004C085E04D
:1023D0008C1508F49DC0202F2F7181E090E001C082
:1023E000880F2A95EAF79091CF0189270FC0802F97
:1023F0008F71BB2009F470C087C0BB2051F081E011
:10240000902F9F7101C0880F9A95EAF70E943719A3
:102410007FC080E0FBCF8091A90182FF06C0802FA2
:102420008F71BB2009F470C057C0809126038230A1
:10243000A0F180912502BB20E1F00E9483208091D1
:1024400028028770843039F40E949020802F8F7189
:102450000E943B195CC080912603C81608F057C043
:10246000902F9F71D92E892F0E94471963E08D2DDF
:102470000DC00E948A2080912603C81650F00E9449
:1024800090200E943C2164E0802F8F710E94D12017
:102490003EC081E00E9497203AC0BB2059F0E02F57
:1024A000EF71DE2E8E2F0E94471963E08D2D0E9462
:1024B000D1202EC081E00E949720F1E0FC1540F56C
:1024C00082E00E94972024C0BB2049F0CC2011F06C
:1024D000812F46CE802F8F710E94471919C0CC20C2
:1024E00089F0193329F480912A0390912B0304C0B9
:1024F00080912803909129030E946125812F0E94D9
:10250000B71906C0802F8F710E943B1901C0A12C02
:1025100088EF890D843010F40E945223812F902F70
:102520000E945619811105C01092B7011092B60190
:102530001EC0BB2019F0C110F7CF19C0C110F4CFD5
:1025400020E0F701408151816281738184810E9482
:102550006F308091270383FFE7CF8091B601909180
:10256000B701029709F7812F0E944A1ADDCFAA20EE
:10257000A9F08091280280FD11C0F7011282859593
:10258000859585950E944719C7010E94DD0A8091B3
:1025900028028595859585950E943B1960E0C701C5
:1025A0000E9498300F900F900F900F90DF91CF9175
:1025B0001F910F91FF90EF90DF90CF90BF90AF9061
:1025C0009F908F9008958091C70187FF11C08091DF
:1025D000E80082FD05C08091C5018111F8CF11C0CE
:1025E0008091E8008B770BC08091C501882349F06A
:1025F0008091E80080FFF8CF8091E8008E7780938B
:10260000E8000895982F973068F59093E90098179F
:1026100039F07091EC002091ED005091F00003C072
:10262000242F762F50E021FD02C09F5FECCF309128
:10263000EB003E7F3093EB003091ED003D7F309317
:10264000ED003091EB0031603093EB007093EC00C3
:102650002093ED005093F0002091EE0027FDE5CF90
:1026600080E008958F708093E90081E008952091C3
:10267000CD013091CE012617370748F0611571055D
:1026800039F42091E8002E772093E80001C0B901C9
:10269000FC0120E06115710579F18091C501882365
:1026A000F1F18530F1F18091E80083FD3CC080912B
:1026B000E80082FD2EC08091E80080FFEBCF2091E2
:1026C000F3008091F20090E0922B6115710551F0BA
:1026D0008830910538F421912093F10061507109FF
:1026E0000196F3CF21E0089709F020E08091E800FF
:1026F0008E778093E800CECF2111CFCF0AC0809192
:10270000C501882361F0853061F08091E80083FD88
:102710000AC08091E80082FFF2CF80E0089582E055
:10272000089583E0089581E008950895BC0184E050
:102730000C945B22BC0183E00C945B228091CF015E
:10274000982F9670963011F4886001C0877F0C94A2
:1027500037191F93CF93DF93CDB7DEB7AA970FB684
:10276000F894DEBF0FBECDBFE7ECF1E08FEC91E057
:102770002091F10021938E179F07D1F78091C80116
:10278000833009F463C030F4813071F0823009F491
:102790009DC0B4C08A3009F489C08B3009F46EC082
:1027A000893009F0ABC020C08091C701813A09F09F
:1027B000A5C08091E800877F8093E8008091CB01DD
:1027C0009091CC01892B21F468E08BEB91E003C060
:1027D00060E080E090E070E00E9437138091E800B4
:1027E0008B778093E8008AC08091C701813209F01D
:1027F00085C08091CB019091CC01009719F0029790
:1028000009F07CC08091E800877F8093E800809188
:10281000E80082FD05C08091C5018111F8CF6EC02E
:102820002091F3008091F20090E0922B029731F416
:102830008091F100813011F0863021F48091F10017
:102840008093BA018091E8008B7754C08091C701D2
:10285000813A09F053C08091CB019091CC01892B32
:1028600009F04CC08091E800877F8093E800809158
:10287000E80080FFFCCF80910C0137C08091C70138
:102880008132E1F58091CB019091CC01892BB1F59A
:102890008091E800877F8093E8000E94E312809196
:1028A000C90180930C010E94891928C08091C70139
:1028B000813221F58091E800877F8093E8000E94B3
:1028C000E3128091CA018093B90118C08091C701B9
:1028D000813AA1F48091E800877F8093E80080919D
:1028E000E80080FFFCCF8091B9018093F1008091D6
:1028F000E8008E778093E8000E94E3128091E80060
:1029000083FFEBC18091C7019091C801492F50E02E
:102910004A30510508F0E1C1FA01E059FF4F0C942B
:10292000F333803821F0823809F0D7C108C0809194
:10293000C3019091C401992389F082600FC08091F6
:10294000CB018F70873008F0C8C18093E900809177
:10295000EB0085FB882780F91092E9009091E80050
:10296000977F9093E8008093F1001092F1007CC172
:10297000282F2D7F09F0B1C1882319F0823061F032
:10298000ACC18091C901813009F0A7C1933009F031
:1029900080E08093C4012EC08091C90181112AC0BA
:1029A0008091CB018F702FEF280F263008F095C152
:1029B0008093E9002091EB0020FF1CC0933021F4AC
:1029C0008091EB00806214C09091EB009061909335
:1029D000EB0021E030E0A90102C0440F551F8A95A9
:1029E000E2F74093EA001092EA008091EB008860E1
:1029F0008093EB001092E9008091E800877F80933C
:102A0000E8000E94E31269C1811167C11091C901F8
:102A10001F778091E3008078812B8093E300809181
:102A2000E800877F8093E8000E94E3128091E8002D
:102A300080FFFCCF8091E30080688093E300111158
:102A400002C082E001C083E08093C50146C1805886
:102A5000823008F042C12091C9013091CA012C3D59
:102A600053E0350779F583E08A838AE289834FB79B
:102A7000F894DE01139620E03EE051E2E32FF0E00F
:102A800050935700E49120FF03C0E295EF703F5F41
:102A9000EF708E2F90E0EA3010F0C79601C0C0961C
:102AA0008D939D932F5F243149F74FBF8091E800AC
:102AB000877F8093E8006AE270E0CE0101960E9471
:102AC0003713C0C08091CB019091CC01432F552783
:102AD00043305105B1F068F44130510509F40CC19F
:102AE0004230510509F0F9C08BE590E0E9EDF2E0E4
:102AF00057C04132510589F14232510509F43CC0B9
:102B0000ECC0C901992781309105B9F070F082308D
:102B10009105D9F0039709F0E0C0E6E4F3E0E49111
:102B20008E2F90E0E6E4F3E038C0E6E8F3E0E491CD
:102B30008E2F90E0E6E8F3E030C0E6E7F3E0E491C2
:102B40008E2F90E0E6E7F3E028C0E4E6F3E0E491BE
:102B50008E2F90E0E4E6F3E020C08330910508F08A
:102B6000BCC0880F991FFC01E65BFE4F0190F0810D
:102B7000E02D89E090E014C08330910508F0ADC0ED
:102B8000FC01EE0FFF1FEC5BFE4F0190F081E02D8A
:102B9000DC01AF5BBE4F8C9190E0009709F49DC0C3
:102BA0002091E800277F2093E8002091CD0130910B
:102BB000CE012817390708F4C90140E0009789F1D0
:102BC0002091C501222309F43DC02530D9F120917F
:102BD000E80023FD37C02091E80022FD2FC020919E
:102BE000E80020FFEBCF4091F3002091F20030E0AD
:102BF000342B009759F02830310540F4449140932C
:102C0000F100319601972F5F3F4FF3CF41E028301D
:102C1000310509F040E02091E8002E772093E8008C
:102C2000CDCF4111CDCF0AC08091C501882351F08D
:102C3000853041F08091E80083FD04C08091E80078
:102C400082FFF2CF8091E8008B778093E80045C047
:102C5000803809F042C08091E800877F8093E800C7
:102C60008091C6018093F1008091E8008E77C7CEF5
:102C7000811133C08091C9019091CA0199270297AF
:102C800064F58091E800877F8093E8001091C90186
:102C90001093C6010E94E312111106C08091E30057
:102CA00087FD02C081E001C084E08093C50142E05D
:102CB00061EC81E00E94021342E261EC84E00E9438
:102CC000021342E261EC82E00E94021342E260ECF5
:102CD00083E00E9402138091C5018091E80083FF88
:102CE00010C08091E800877F8093E8008091EB001E
:102CF00080628093EB0005C082E190E0E4E3F3E0C2
:102D00004FCFAA960FB6F894DEBF0FBECDBFDF91AE
:102D1000CF911F9108951F920F920FB60F92112419
:102D20002F933F934F935F936F937F938F939F93D3
:102D3000AF93BF93CF93DF93EF93FF93C091E900DD
:102D4000CF708091EC00D82FD17080FDD0E8109228
:102D5000E9008091F000877F8093F00078940E94D2
:102D6000A9131092E9008091F00088608093F00030
:102D7000CD2BCF70C093E900FF91EF91DF91CF9100
:102D8000BF91AF919F918F917F916F915F914F9183
:102D90003F912F910F900FBE0F901F901895E8ED67
:102DA000F0E080818E7F80831092E2001092DA0042
:102DB0001092E100A0EEB0E08C9181608C93808154
:102DC0008F77808319BCA7EDB0E08C918E7F8C93B8
:102DD00080818F7E80831092B8010895CF92DF9218
:102DE000EF92FF920F931F93CF93DF93C8EDD0E044
:102DF00088818F7E8883E7EDF0E080818160808329
:102E000084E082BF81E08093B80188818E7F8883CF
:102E100002EE10E0F80110821092DA0081EEC82E66
:102E2000D12CF601108288818F7788838881806811
:102E3000888388818F7D888319BC1092C501109288
:102E4000C6011092C4011092C30190EEE92EF12C3C
:102E5000F70180818B7F808388818160888342E055
:102E600060E080E00E940213F60180818E7F808303
:102E7000F801808181608083808188608083F70190
:102E800080818E7F8083888180618883DF91CF916C
:102E90001F910F91FF90EF90DF90CF9008951F92B8
:102EA0000F920FB60F9211242F933F934F935F937E
:102EB0006F937F938F939F93AF93BF93EF93FF9302
:102EC0008091E10082FF09C08091E20082FF05C08D
:102ED0008091E1008B7F8093E1008091DA0080FF98
:102EE0002AC08091D80080FF26C08091DA008E7FB2
:102EF0008093DA008091D90080FF18C080E189BDFD
:102F000082E189BD09B400FEFDCF81E08093C50157
:102F10008091B80181110FC00E94CF160E94EE1659
:102F20008091E20084608093E20005C019BC109299
:102F3000C5011092B8018091E10080FF17C0809117
:102F4000E20080FF13C08091E2008E7F8093E20058
:102F50008091E20080618093E2008091D8008062DD
:102F60008093D80019BC85E08093C5018091E10071
:102F700084FF30C08091E20084FF2CC080E189BDD5
:102F800082E189BD09B400FEFDCF8091D8008F7D1C
:102F90008093D8008091E1008F7E8093E100809142
:102FA000E2008F7E8093E2008091E2008160809356
:102FB000E2008091C601882311F084E007C080916F
:102FC000E30087FD02C081E001C083E08093C5017A
:102FD0008091C5018091E10083FF27C08091E200CC
:102FE00083FF23C08091E100877F8093E10082E02E
:102FF0008093C5011092C6018091E1008E7F80937D
:10300000E1008091E2008E7F8093E2008091E200F7
:1030100080618093E20042E060E080E00E94021361
:103020008091F00088608093F000FF91EF91BF9154
:10303000AF919F918F917F916F915F914F913F9150
:103040002F910F900FBE0F901F9018952091E400C4
:103050003091E50095E64091EC00842F817040FFAF
:1030600023C08091E80080FD1DC08091C5018823A8
:1030700099F0853099F08091EB0085FD11C0409169
:10308000E4005091E5002417350729F3915011F021
:103090009A01E1CF84E0089582E0089583E00895E5
:1030A00081E0089580E008954091E80042FFDDCF7F
:1030B0000895EF92FF920F931F93CF93DF937C01BC
:1030C0008B010E942618811119C0E7010115110515
:1030D000A1F08091E80085FD0AC08091E8008E771C
:1030E0008093E8000E942618882381F307C0899105
:1030F0008093F10001501109E9CF80E0DF91CF9179
:103100001F910F91FF90EF90089580E090E00E9452
:103110003C2380E090E00E94262310923C02109213
:1031200029020E940121E4E4F3E086E0DF011D9220
:103130008A95E9F710923E0310923D0310923F03E7
:103140000C94D829CF92DF92FF920F931F93CF93C5
:10315000DF936C010091CF0180916003082BC7E0E1
:10316000D0E010E0C8010C2E02C0959587950A9416
:10317000E2F780FD04C02197A8F7F12C09C0FC2ECE
:10318000B6018C2F0E94C7260E94441E019799F316
:103190008F2DDF91CF911F910F91FF90DF90CF90F6
:1031A0000895CF93DF93EC010E94A218BE010E9404
:1031B000C7260E94441EDF91CF9108959E3F51F192
:1031C000990F890F682F669566956695982F977069
:1031D00083E0689FB001112440E050E080E0FB01F3
:1031E000E40FF51FE053FE4F208130E0092E02C0AE
:1031F000369527950A94E2F721703327042E01C0F3
:10320000220F0A94EAF7822B4F5F5F4F433051053C
:1032100031F7089580E008959E3F41F1990F890F9D
:10322000E82FE695E695E695877051E001C0550FC9
:103230008A95EAF783E0E89FF0011124E053FE4FFE
:1032400020E030E070E04081CB01022E02C0969574
:1032500087950A94E2F781708195842785238427D6
:1032600081932F5F3F4F2330310569F70895809395
:10327000CF010C94851821E030E001C0220F8A951F
:10328000EAF720958091CF0182230C94371921E031
:1032900030E001C0220F8A95EAF78091CF01822B9E
:1032A0000C943719809360030C948518E92FE295EC
:1032B000EF704E2F50E0FA013297EE30F105B0F486
:1032C000E658FF4F0C94F333803F91F018F4883E9A
:1032D00068F40EC0843F51F40BC0883E48F0813F33
:1032E00029F406C093FB882780F9089580E00895AB
:1032F00081E00895FC0186819781009719F00E9472
:10330000441E04C0808191810E94D1180E945619E8
:10331000089510923D0286E0E5EDF1E0DF011D9297
:103320008A95E9F70C948518882341F0809590914F
:103330003C02892380933C020C9401210895882348
:1033400039F090913C02892B80933C020C9401212E
:103350000895882321F00E9483200C940121089570
:10336000882321F00E948A200C940121089588234B
:10337000A9F19CEF980F913A60F4E3EDF1E09281AE
:10338000891301C01282319691E0E93DF907B9F73E
:103390000DC090E2980F983058F4877091E001C00A
:1033A000990F8A95EAF7892F0E9483200C940121B6
:1033B0009BE5980F933020F480E090E00C943C2340
:1033C00098E5980F973120F480E090E00C94262344
:1033D000803F20F00E94022A0C94D8290895CF93B0
:1033E000882309F455C0C82F8CEF8C0F813AF8F46C
:1033F000E5EDF1E08BED91E02191C21721F08E1700
:103400009F07D1F70EC0E3EDF1E089ED91E0228155
:10341000C21301C0128231968E179F07C1F70E9416
:1034200001216C2F83ED91E00E940C230CC080E2FF
:103430008C0F883058F4C77081E001C0880FCA959E
:10344000EAF70E948A20CF910C940121EBE5EC0F62
:10345000E33040F4F0E0E05BFE4F808190E0CF91FC
:103460000C943C23E8E5EC0FE73150F4F0E0EE0F6C
:10347000FF1FED5AFE4F80819181CF910C9426233E
:10348000C03F30F08C2F0E940F2BCF910C94D82985
:10349000CF9108951F93CF93DF93182F893329F489
:1034A000C0912A03D0912B0304C0C0912803D0916E
:1034B0002903812F0E94EF19209741F08FE99FE0A7
:1034C0000197F1F700C000002197F6CF812FDF911F
:1034D000CF911F910C94B7192F923F924F925F9208
:1034E0006F927F928F929F92AF92BF92CF92DF9214
:1034F000EF92FF920F931F93CF93DF93CDB7DEB779
:1035000065970FB6F894DEBF0FBECDBF8C0185E086
:10351000F801DE01519601900D928A95E1F7D801EC
:103520004C9011965C9011971296EC90129713960E
:10353000CD90DC90149760E08BED91E00E94983084
:103540008BEDA82E81E0B82E8090DE019090DF01F7
:10355000A4016091DC018091DB010E94D523F82E4B
:103560008111E5C13090DD01F601E819F9094F013B
:1035700060E0332009F469C1C5010E949830609071
:103580002203709023032090E0018614970408F032
:1035900014C14091DE015091DF01B090DB01A09099
:1035A000DC01822D807F6A2D09F097C08B2D0E944F
:1035B000D523811124C0D80111968C9111978A11BD
:1035C0001EC08C918B111BC02091E1013091E20152
:1035D00016968D919C9117972817390781F4E11061
:1035E0000EC0822D8F7080618093E0018BED91E0A1
:1035F0000E94DD0A8091E001F8018583B4C1F4EFF7
:103600006F16F1E07F0620F48091270380FF21C030
:10361000A601652D842D0E94D523811103C081E070
:103620008E2502C080E090E080FF13C04E2D652DF6
:10363000842D0E944221882361F08BED91E00E944D
:10364000DD0AEBEDF1E088E0DF011D928A95E9F7F4
:103650008AC1A601652D842D0E94D523811103C046
:1036600081E08E2502C080E090E0B82FB170CB2EB3
:1036700080FF2AC04E2D652D842D0E944221D82E18
:10368000811122C0498A5A8A89899A890E94D1184F
:10369000292F22952F70223018F0243078F405C09D
:1036A0009F7049F0811107C00DC09F7021F0F80193
:1036B0009581907F39F0805E883020F0C8010E94AB
:1036C000DD0ADC2CFD2C4FC1EE2009F44BC18091AA
:1036D000E00181608093E00146C18B2D0E94D523DB
:1036E000811124C0D80111968C9111978A111EC0A6
:1036F0008C918B111BC02091E1013091E201169653
:103700008D919C9117972817390781F4E1100EC00D
:1037100015962C92C8010E94DD0A88E0F801ABEDF5
:10372000B1E001900D928A95E1F76FC0C8010E9447
:103730007A198823E1F1EE20D1F12091E001822F66
:1037400082958F7090E00297A4F08091DB019091B8
:10375000DC019A8789871B86DD86CC862E8780913F
:10376000E1019091E201988B8F87CE0109960E942A
:10377000DD0A88E0F801ABEDB1E001900D928A9589
:10378000E1F70E946C2116C0F090DB019090DC0103
:103790004091DE015091DF01692D8F2D0E94D523CC
:1037A000882399F0C8010E947A19811130C0C8019C
:1037B0000E94DD0AFF24F394D6C0822D807F21F77A
:1037C0008BED91E00E94DD0AACC0D80111968C917E
:1037D00011978911E7CF8C918F11E4CF2091E101EE
:1037E0003091E20116968D919C9117972817390711
:1037F000C9F6E110D7CF15962C92C8010E94DD0AB8
:1038000088E0F50111928A95E9F7F32CACC0EE201F
:1038100071F22091E001822F82958F7090E00297E3
:103820000CF4A7CF8091DB019091DC019A8389830E
:103830001B82DD82CC822E838091E1019091E20196
:1038400098878F83CE01019692CF8BED91E00E94F5
:10385000983080912203909123038816990608F0EE
:1038600060C0FE2CEE2009F4A2CFE090DB01D090E6
:10387000DC014091DE015091DF016D2D8E2D0E9403
:10388000D523811140C0D80111968C9111978D11CB
:103890003AC08C918E1137C02091E1013091E20144
:1038A00016968D919C9117972817390761F580918D
:1038B000270382FD1FC08091E00180FD1BC082951F
:1038C0008F70482F50E041155105A1F02091E00183
:1038D00015962C9315974F30510549F08F5F982F0F
:1038E0009295907F822F8F70892B15968C93C801AB
:1038F0000E94DD0A88E0F801ABEDB1E001900D9285
:103900008A95E1F730C0C8010E947A19811131CF40
:103910008091E00181608093E001C8010E94DD0A8E
:1039200022C088E0F50111928A95E9F71CC0EE20CB
:1039300009F43DCFC8010E947A19F82E882309F4B2
:1039400036CF88E0F801ABEDB1E001900D928A9599
:10395000E1F78091DB019091DC010E94D1180E9477
:103960006C2101C0F12C8F2D65960FB6F894DEBF47
:103970000FBECDBFDF91CF911F910F91FF90EF90C0
:10398000DF90CF90BF90AF909F908F907F906F907F
:103990005F904F903F902F900895EF92FF920F937A
:1039A0001F93CF93DF93CDB7DEB760970FB6F89430
:1039B000DEBF0FBECDBF29873A874B875C876D87F7
:1039C0007E878F87988BCE0109960E946C1A811191
:1039D0004AC088E0FE013996DE01119601900D92F1
:1039E0008A95E1F7E984FA840C851D85A8016F2D7D
:1039F0008E2D0E94D523811136C0A091E301B0E045
:103A0000CD010196877099272091240230E082171A
:103A1000930781F1E982FA821D830C8393E0AA0F58
:103A2000BB1F9A95E1F7AC51BE4F98E0FE0131966D
:103A300001900D929A95E1F78093E3010E94622133
:103A400012C028E0829FC00111248C519E4F0E9419
:103A50006C1A8823E1F08091240290E0019687702F
:103A6000992780932402809124029091E301891385
:103A7000E8CF0DC00E9489191092E3011092240230
:103A8000EBEDF1E088E0DF011D928A95E9F76096A1
:103A90000FB6F894DEBF0FBECDBFDF91CF911F915F
:103AA0000F91FF90EF90089580E008959091A80104
:103AB00092FF0DC0282F2871283019F4877F846069
:103AC00006C0282F2471243011F48B7F886093FF67
:103AD0000DC0282F2871283119F4877E846106C013
:103AE000282F2471243111F48B7E88612091A90143
:103AF00020FF0DC0382F3871383019F4877F81606E
:103B000006C0382F3171313011F48E7F886021FF6B
:103B10000DC0282F2871283119F4877E816106C0D5
:103B2000282F2171213111F48E7E886194FD877ECA
:103B30000895F894E82FE295EF70F0E031A1282F76
:103B40002F7081E090E001C0880F2A95EAF7982F46
:103B50009095932391A392A1892B82A378940895A1
:103B6000CF93DF93F894579A5F98789400C099B1F7
:103B70004A9902C082E001C080E093FB992790F946
:103B8000C92F90E0D92F91E0C927C170C82B87E9D0
:103B90000E94991D80EA8A95F1F78091AA01D1E0EF
:103BA0008C1301C0D0E08C1759F0C093AA0181E0BA
:103BB00080932F020E94D72290932E0280932D0291
:103BC00080912F02882371F080912D0290912E0216
:103BD0000E94BC22059730F08091AA018093B40125
:103BE00010922F0280911A01882341F180910803DD
:103BF00090910903009711F10E94BC22209162026A
:103C00003091630228173907C8F490910603809118
:103C10000703981759F00E948024109263021092B3
:103C20006202109209031092080308C00E94122435
:103C300010920903109208030E94612480912503C9
:103C400080FF1EC08091190182FF1AC00E94D722F6
:103C500020915E0230915F02AC01421B530B209118
:103C60001701309118014217530750F020E332E05A
:103C700041E0BC0180916002909161020E946C253C
:103C80008D2FDF91CF910895CF93DF9382389105E7
:103C900069F1B0F48133910509F46FC048F48932B9
:103CA000910509F465C08A32910509F46BC08AC098
:103CB0008533910509F457C089339105B9F082C065
:103CC000833E910571F138F4803E9105B1F0823E5A
:103CD000910511F177C0863E9105B9F1873E9105B6
:103CE000C9F1843E910509F06DC024C02091A8015E
:103CF00020FD53C021FD51C065C08091A80180FD09
:103D000046C08091A90180FF48C08091A80184FD30
:103D100050C183EE90E04FC18091A80182FF3AC06C
:103D2000F4CF8091A80182FD35C08091A90180FD6A
:103D300034C0EBCF8091A90181FF35C08091A801EB
:103D400084FD37C187EE90E036C18091A80183FFE2
:103D500027C0F4CF8091A80183FD22C08091A901E2
:103D600081FD21C0EBCF8091A80185FD1FC021C03E
:103D70008091A80185FD1DC019C08091A80186FD14
:103D80001BC01DC08091A80186FD19C015C089E324
:103D900090E011C182EE90E00EC180EE90E00BC188
:103DA00086EE90E008C184EE90E005C189E290E0E3
:103DB00002C185E390E0FFC08AE290E0FCC081E3AD
:103DC00090E0F9C0811531E5930708F069C08115CD
:103DD00040E59407F0F09C0174E0369527957A95BC
:103DE000E1F7922F9370482F437021E030E002C03A
:103DF000220F331F4A95E2F73C68392B982F9F70AA
:103E00009695969540E2949FC0011124822B932BA6
:103E1000D2C0883E910568F5803E910508F0CBC080
:103E2000883A9105B8F4853A910548F0855AE82F0B
:103E3000F0E0E05BFE4F808190E09064BCC0813098
:103E4000910509F4B3C008F4B4C08430910508F4B6
:103E5000B0C0B1C08F3B910508F0ABC0885AE82FC5
:103E6000F0E0EE0FFF1FED5AFE4F808191819464C8
:103E7000A2C0811520E2920758F4811531E0930722
:103E800008F099C0803F910508F493C0906593C0F5
:103E9000811540E4940708F48CC09F70906A8BC031
:103EA000811525E5920708F042C0811534E5930796
:103EB00028F0982F8827846F906A7DC0811543E58C
:103EC0009407B0F09C012370332741E050E002C01A
:103ED000440F551F2A95E2F7282F2695269580E254
:103EE000289F90011124CA01822B932B9A6863C0EA
:103EF000811522E5920728F4982F8827816F906A10
:103F00005AC09C012370332741E050E002C0440FA7
:103F1000551F2A95E2F7282F2695269580E2289F9F
:103F200090011124CA01822B932B9C6844C0EC01A0
:103F3000811539E59307A8F48115984528F09C2F41
:103F40008827806F906A37C0C11586E5D80788F545
:103F50008C2F0E94561D8F7190E0982F88279062B9
:103F60002AC081152AE5920790F48C2F8F700E9449
:103F7000561D94E0D695C7959A95E1F7CF70D0E09D
:103F8000DC2FCC27D0699E01282BC90114C0905684
:103F90008115904270F48D2F8F710E94561D282F2D
:103FA0002F71CE0199279062922B05C081E090E09D
:103FB00002C080E090E0DF91CF910895CF9384E03C
:103FC00090E00E945933C82F82E290E00E9459335A
:103FD0002C2F30E0A901582BCA01CF91089580E021
:103FE00090E00E9467338A3E9E4F11F40C945E2F3E
:103FF00080E008956AEE7EEF80E090E00E948B33CF
:1040000060E082E090E00E946D3360E083E090E049
:104010000E946D331092600360E084E090E00E94A3
:104020006D3360E082E290E00E946D3360E085E0F5
:1040300090E00E946D3360E086E090E00E946D3376
:104040006FEF87E090E00E946D3340E050E0BA01EE
:1040500088E090E00E947F3360E08DE090E00E9475
:104060006D3340E050E0BA0188E190E00E947F3378
:1040700060E087E190E00E946D3340E050E0BA01DB
:104080008CE190E00E947F3360E070E080E290E09D
:104090000E948B3340E050E0BA0188E190E00E943A
:1040A0007F3380E00E94312F0E944F2F40E050E08C
:1040B000BA018FE090E00E947F3340E050E0BA0107
:1040C00083E190E00C947F3380912C02882331F0BF
:1040D00010922C0210922B0210922A020895CF9374
:1040E0009091A90192FD0DC090912C02981749F072
:1040F000C82F0E94D72290932B0280932A02C0934C
:104100002C02CF910895809590913D028923809350
:104110003D02089590913D02892B80933D020895C0
:1041200010922802109227021092260208952091E0
:1041300028028095822380932802982F977099F403
:1041400030E0482F082E000C550B2417350759F086
:104150009091A90192FD07C08595859585950E944E
:104160003B190C9490200895CF93C091A901C2FBF4
:10417000992790F9981799F080FBC2F9C093A9018B
:104180006091A80184E090E00E946D336C2F82E280
:1041900090E00E946D3382E0CF910C949720CF91F4
:1041A00008959091A90192FD10C098E0899F900117
:1041B0001124262B209328020E9447190E94D722FF
:1041C000909327028093260208950C9447198091BA
:1041D0000C0390910D03892B89F00E94D722209126
:1041E0002A0230912B02AC01421B530B81E020913B
:1041F0000C0330910D034217530708F480E08170DF
:10420000089590913D0280913C02892B9091290262
:10421000892B8093D30180912C02882301F1809116
:104220000C0390910D03892B29F00E94E720811146
:104230000E9464209091D30180912C02892B80935D
:10424000D301E5EDF1E097E080E0915029F0219174
:104250002223D9F38F5FF9CF81110E946420E0916E
:104260003103F0913203309731F00280F381E02D79
:1042700083ED91E0099408958091250281111092B7
:1042800025020895209124029091E3012917B1F0AD
:1042900030E0F90153E0EE0FFF1F5A95E1F7EC51C2
:1042A000FE4F5181561306C05081581303C05281EE
:1042B000541306C02F5F3F4F2770E8CF80E008956A
:1042C00081E00895809124029091E301891719F00B
:1042D0008F5F8770FBCF0895CF92DF92EF92FF92AE
:1042E0000F931F93CF93DF938091E00182958F709E
:1042F00009F05CC08091DD01882309F457C0C091AA
:1043000024028091E301C81709F450C0F090DB014A
:10431000E090DC01C090DE01D090DF01A6016E2D9F
:104320008F2D0E94D523D0E081113DC08E0183E006
:10433000000F111F8A95E1F7F801EC51FE4F8181C2
:104340008E1131C080818F112EC0828181112BC0CE
:10435000E380F480EC18FD0860E08BED91E00E94B2
:1043600098308091220390912303E816F906D8F43F
:104370008091E0018F7080618093E001F801E75146
:10438000FE4F80818F70806180838BED91E00E9471
:10439000DD0ADF91CF911F910F91FF90EF90DF9099
:1043A000CF900C9462212196C770ABCFDF91CF9153
:1043B0001F910F91FF90EF90DF90CF900895809123
:1043C000BA010895EAE0F3E0848195812AE030E0C3
:1043D000B9010E94A933609316018681809315016B
:1043E0008285809314018485809313018685978547
:1043F000B9010E94A9336093120180898093110151
:10440000828980931001848980930F01089580919F
:104410000A0390910B03909318018093170108955C
:1044200024E02093E9002FEF3091E800215035FD82
:1044300006C035ED3A95F1F700002111F5CF209136
:10444000E80025FF0BC040E050E066E070E00E940D
:1044500059188091E8008E778093E8000895CF93F3
:10446000DF9321E02093E9002FEF3091E800215005
:1044700035FD06C035ED3A95F1F700002111F5CF75
:104480002091E80025FF14C0EC0140E050E068E016
:1044900070E00E9459188091E8008E778093E800C0
:1044A00088E0FE01ABEBB1E001900D928A95E1F757
:1044B000DF91CF91089580933A0370933C0360930A
:1044C0003B038091C5018430F9F48093E9008FEFBC
:1044D0009091E800815095FD06C095ED9A95F1F711
:1044E00000008111F5CF8091E80085FF0DC040E00C
:1044F00050E063E070E08AE393E00E9459188091F5
:10450000E8008E778093E800089587E797E7909317
:104510000108809300089AE088E10FB6F894A89506
:10452000809360000FBE90936000FFCF78941F923D
:104530000F920FB60F9211248F939F93AF93BF9357
:104540008091360390913703A0913803B0913903DD
:104550000196A11DB11D8093360390933703A0935C
:104560003803B0933903BF91AF919F918F910F9012
:104570000FBE0F901F9018959C014FB7F894809133
:10458000360390913703A0913803B09139034FBFA0
:10459000821B930B08952FB7F894609136037091A6
:1045A000370380913803909139032FBF08952FB7B7
:1045B000F8948091360390913703A0913803B0911D
:1045C00039032FBF08951F920F920FB60F92112437
:1045D0008F939F93AF93BF9380913503811113C045
:1045E0008091360390913703A0913803B09139033D
:1045F0004196A11DB11D8093360390933703A0937C
:104600003803B0933903BF91AF919F918F910F9071
:104610000FBE0F901F9018959C01FC0132969FEFE2
:1046200080E04191461789F09F3F19F4411101C084
:10463000982F8F5F8630A9F79F3F39F0F901E90F76
:10464000F11D97FDFA956283089508952091330333
:10465000309134032817390771F090933403809315
:104660003303E0913103F0913203309721F000845D
:10467000F185E02D0994089520912F0330913003A6
:104680002817390771F09093300380932F03E0913E
:104690003103F0913203309721F00680F781E02D4D
:1046A00009940895E0913103F0913203309721F09D
:1046B0000190F081E02D099480E008950F931F93FD
:1046C000CF93DF93C42FD22FFC0182818823C9F0BE
:1046D00040932E030E94D72290932D0380932C03A6
:1046E00080E28C0F883008F05BC0C77081E001C0A9
:1046F000880FCA95EAF7DF91CF911F910F910C9423
:10470000B01980912E03481334C080912C039091EE
:104710002D030E94BC222091220330912303821793
:10472000930738F510E21D0FCD17B9F080E28C0F1A
:10473000883040F4C77081E001C0880FCA95EAF75D
:104740000E94A919183028F581E09D2F977001C0AB
:10475000880F9A95EAF70E94B019802F0E944A1A92
:104760001830F0F4D77081E001C0880FDA95EAF7CD
:104770000AC080E28C0F883098F4C77081E001C0D5
:10478000880FCA95EAF7DF91CF911F910F910C9492
:10479000A919802FDF91CF911F910F910C944A1A84
:1047A000DF91CF911F910F910895452B41F06F3FFD
:1047B00041F491E08F3F09F090E0892F03C081E040
:1047C00001C080E081700895BC0140910603809192
:1047D0000703942F981729F1292F30E0F901EE0FE4
:1047E000FF1FE250FD4F0190F081E02DE617F70723
:1047F00099F487E0869FF001879FF00D1124EA531A
:10480000FD4F81E0848394130CC02F5F3F4F2370D2
:1048100033272093060308952F5F3F4F922F937005
:10482000D9CF0895EF92FF920F931F93CF93DF9309
:10483000809165028823F1F1009164028CE0F82EEA
:1048400080916502081790F5EE24E394E00EE09263
:10485000640210E0F09EE001F19ED00D1124CA59CF
:10486000DD4F4B815C81698188810E94D523811154
:104870001BC08E819F81892B21F4888599850196A3
:1048800051F4288139814A815B816C817D818E81DF
:104890009F810E94CD1CF09EF001F19EF00D11242D
:1048A000EA59FD4F148213820E2DCACF1092650271
:1048B00010926402DF91CF911F910F91FF90EF90C2
:1048C00008951092630210926202E6ECF2E0858194
:1048D000811102C014821682379682E0EE3FF807FB
:1048E000B1F70895109209031092080310921A016B
:1048F00080910703809306030E9461240C94122484
:104900003F924F925F926F927F928F929F92AF925F
:10491000BF92CF92DF92EF92FF920F931F93CF93AC
:10492000DF93C091060397E0892E01E010E02CE0B0
:10493000322E3EEF932E4424439480910703C817F0
:1049400009F478C0D0E0FE01EE0FFF1FE250FD4FEA
:1049500080819181889ED001899EB00D1124AA5337
:10496000BD4F14962C911497211161C0509065028F
:10497000E6E6F2E020E030E0712C5D01251508F05C
:1049800054C0E284F384D501CD90DC906FEF7FEFCB
:10499000612C462D50E0DA01AA0FBB1FAC0DBD1DE6
:1049A0000D90BC91A02D109731F0EA16FB0609F48A
:1049B000BA016394EECF6F3FBFEF7B0791F1D8014F
:1049C00002C0AA0FBB1F6A95E2F77A2AB80102C09B
:1049D000660F771F6A94E2F7AB0141505109672DCA
:1049E00070E046175707D9F4329EF001339EF00D60
:1049F0001124EA59FD4F889ED001899EB00D1124E3
:104A0000AA53BD4F12962D913C911397378326835D
:104A1000908291829187808715964C9206C014826D
:104A200013822F5F3F4F3C96A9CF0E94E42321962B
:104A3000C37083CF0E941224DF91CF911F910F91F9
:104A4000FF90EF90DF90CF90BF90AF909F908F90AE
:104A50007F906F905F904F903F900C946124809175
:104A60001901877F8093190190913C029D7F90935B
:104A70003C0284FF06C08F7E8093190182E00E9471
:104A80008A208091190185FF06C08F7D80931901CE
:104A900080E20E948A200C940121662329F0209153
:104AA0003C02226020933C029C013056211540E2DA
:104AB000340720F0305E2115304108F499270C941A
:104AC0002733009741F0EFE9FFE03197F1F700C09D
:104AD00000000197F6CF0895AF92BF92CF92DF9278
:104AE000EF92FF920F931F93CF93DF935C017B01B3
:104AF000C42E89018091190182FF8DC0C09160028E
:104B0000D0916102CA15DB0521F0A114B10409F0AE
:104B100082C0809119018B7F8093190181FD11C0A2
:104B200080915E0290915F02A701481B590B81E0C2
:104B300020911701309118014217530718F480E0B3
:104B400001C081E08170D82E80911901D0FA81F9DD
:104B500080931901FE01FF2784E0F695E7958A9579
:104B6000E1F79E012F703327EE0FFF1FE25CFD4F30
:104B700081E090E002C0880F991F2A95E2F7DD20BE
:104B800029F020813181822B932B06C0809590954E
:104B900020813181822393239183808380913D0200
:104BA00081FF08C08091190180618093190182E022
:104BB0000E94832080913D0285FF08C080911901E9
:104BC00080628093190180E20E948320A8016D2DEC
:104BD000CE010E944D25CC2031F08091250385FF28
:104BE00002C086FF36C080912803909129030E945D
:104BF000612580916002909161029C0130562115DF
:104C000040E2340720F0305E2115304108F4992746
:104C10000E940D3318C095013327C50190568115A8
:104C200040E2940720F0905E8115904110F4C90194
:104C300001C0C5010E940D33809160029091610214
:104C4000A816B90611F40E942F25F0925F02E09297
:104C50005E02DF91CF911F910F91FF90EF90DF9057
:104C6000CF90BF90AF9008950F931F93CF93DF9392
:104C70000AE013E0C7E4D0E0CE010E945933F80106
:104C800081938F012196C936D105B1F7C0E0D0E0FC
:104C9000FE01E055FC4F85919491009711F0FC01C5
:104CA00009952896C839D10599F7DF91CF911F91C1
:104CB0000F9108950F931F93CF93DF930AE013E0B2
:104CC000C7E4D0E0CE010E945933F80161918F0111
:104CD000681719F0CE010E946D332196C936D105AF
:104CE00089F7DF91CF911F910F910895EAE0F3E0EA
:104CF000128E138E8FEA90E09183808385E0848FFB
:104D000088E893E1938382834CE251E055834483A6
:104D100022E330E03783268385E090E09187808727
:104D20008AE090E09387828764E170E0758764870A
:104D30005787468744E650E0518B408B48E050E06F
:104D4000538B428B48E250E0558B448B378B268B3C
:104D500028EC30E0318F208F158E978F868F80E57D
:104D600090E091A380A30E945A260C943426CF93FE
:104D7000DF93C9EBD0E060E0CE010E946D33219655
:104D8000C11584E0D807B9F7DF91CF910895462F78
:104D900020913A0230913B02232B91F47E3F39F46B
:104DA0006E3F71F4809138029091390208958430F9
:104DB00038F4711105C0623018F460E00C945C2E78
:104DC00080E090E00895AF92BF92CF92DF92EF9291
:104DD000FF920F931F93CF93DF93CDB7DEB72A9740
:104DE0000FB6F894DEBF0FBECDBFA0900D01B090FE
:104DF0000E0181E090E090930E0180930D018AE90D
:104E0000C82E83E0D82E9AE8E92E93E0F92E10E020
:104E1000F6012591349140E060E0812F0E942B2E15
:104E2000F60132962591349141E060E0812F0E9495
:104E30002B2EF7012591349140E060E0812F0E94F4
:104E4000D12DF70132962591349141E060E0812F18
:104E50000E94D12D84E0C80ED11C1F5F94E0E90EA2
:104E6000F11C1430A9F60E947626FE0131967F01CE
:104E70008AE011928A95E9F709E610E04AE050E0ED
:104E8000B801C7010E949133065F1F4F093B11050E
:104E9000A9F7B0920E01A0920D012A960FB6F894D0
:104EA000DEBF0FBECDBFDF91CF911F910F91FF905D
:104EB000EF90DF90CF90BF90AF90089580915B030B
:104EC00080FD0CC0109256031092550310925703A8
:104ED000109259031092580310925A03259A85B1E3
:104EE0008F7D95B190622FB7F894E5E5F3E033E05C
:104EF000EB35F30789F0319148E095B9000000C027
:104F000037FF85B9330F000000C000C000C085B96D
:104F100000C04A9591F7EBCF2FBF8FE594E0019742
:104F2000F1F700C00000089590915B0390FF0EC060
:104F3000809356036093550340935703809359031E
:104F40006093580340935A030C945E270895809110
:104F50005B03282F269530E02115310519F4817067
:104F6000826005C02532310524F081708864809309
:104F70005B030895CF92DF92EF92FF926B017C0169
:104F80000E94A727B701A60188E090E0FF90EF906C
:104F9000DF90CF900C947F3380915F03882319F0CA
:104FA000815080935F0360915B0370915C038091FB
:104FB0005D0390915E030C94BA2780915F03833068
:104FC00018F48F5F80935F0360915B0370915C03C3
:104FD00080915D0390915E030C94BA27EBE5F3E0BA
:104FE00083E0808311828FEF8283838314826081C8
:104FF0007181828193810C94BA27AF92BF92CF9234
:10500000DF92EF92FF920F931F93CF93DF93E82EDF
:10501000F62EE901E42FF0E0611106C0EE5BFB4FD4
:10502000E4914E2F2E2F71C0062F10E0EE5BFB4F48
:105030004491F42FC42ED12C26E0829FC00111246C
:105040002FEF30E0B9010E94A9335BEA5603C0019B
:10505000579F900D11248E0D911D8E0D911D582F6F
:10506000550F580FD901A01BB10BAC9DC001AD9DD0
:10507000900DBC9D900D1124E92FF59ED0011124B7
:10508000AB2FBB277901EA1AFB0AEC9CD001ED9CFF
:10509000B00DFC9CB00D11245901A51AB108A09EB9
:1050A0007001A19EF00CB09EF00C1124EF2CFF2497
:1050B0002E193F092C9D80012D9D100D3C9D100D3A
:1050C0001124212F6230710591F048F461157105AA
:1050D000E1F061307105B9F4242F4B2F16C0643014
:1050E000710569F040F06630710579F00CC0242F2D
:1050F000492FE12F0AC0492FEF2F2B2F06C0292F50
:10510000E42F412F02C0292FEB2F49832883EA8304
:10511000DF91CF911F910F91FF90EF90DF90CF9093
:10512000BF90AF900895CF93DF9300D01F92CDB77B
:10513000DEB790915B0390FF0AC09E012F5F3F4F47
:105140000E94FD274B8169818A810E9494270F90DC
:105150000F900F90DF91CF9108957F928F929F9241
:10516000AF92BF92CF92DF92EF92FF920F931F9375
:10517000CF93DF9300D01F92CDB7DEB7182FD62E76
:10518000042FC22E90915B0390FF6AC0E92FE69531
:10519000AE2FB0E0AF57BE4F8C91809350039E7FEF
:1051A000923061F49E012F5F3F4F812F0E94FD27B7
:1051B0004B8169818A810E94942740C0823019F412
:1051C00000915E033BC0863019F410915C0336C039
:1051D0008930D9F3893191F5E9512E2F2170722E42
:1051E000E695F0E0EE5BFA4F8590949035E5A32EBE
:1051F00033E0B32EE12CF12C99248E9CC0018F9CBE
:10520000900D9E9C900D112496958795711002C06B
:10521000810F03C0212F281B822F9501402F6D2D58
:105220000E94FD278FEFE81AF80A23E0A20EB11CB6
:1052300082E0E816F10409F70E945E2710935C03F0
:10524000D0925D0300935E03CC2051F060915B032C
:1052500070915C0380915D0390915E030E94BA2778
:105260000F900F900F90DF91CF911F910F91FF90B2
:10527000EF90DF90CF90BF90AF909F908F907F90F6
:105280000895EBE5F3E0438121E1421B08F440E09F
:1052900021E0628181810C94AD28EBE5F3E043814C
:1052A00021E1420F08F44FEF21E0628181810C94EB
:1052B000AD28EBE5F3E0628121E1621B08F460E0D8
:1052C00021E0438181810C94AD28EBE5F3E062811C
:1052D00021E1620F08F46FEF21E0438181810C949A
:1052E000AD28EBE5F3E0818121E0438162818850C4
:1052F0000C94AD28EBE5F3E0818121E043816281EC
:10530000885F0C94AD2890915B0390FF3DC0917035
:10531000811102C0926006C0853210F0986402C00C
:10532000880F982B90935B03662351F060915B0389
:1053300070915C0380915D0390915E030E94BA2797
:1053400060915B03669570E04BE050E08BE191E08B
:105350000E943134892B19F01092510309C081E069
:10536000809351030E94D72290934B0380934A036A
:1053700081E080934D0320E040915E0360915D03E6
:1053800080915C030C94AD28089580915B03869511
:10539000815009F484E261E00C94832980915B03DD
:1053A00086958F5F853208F081E061E00C94832957
:1053B0000E94D72220914603211104C02091470367
:1053C000222321F0909343038093420320914803CA
:1053D000211104C020914903222321F0909341031D
:1053E00080934003E0913103F0913203309749F00C
:1053F00082E0809344030480F581E02D84E493E00F
:1054000009940895803F39F48091470387FF6AC06B
:105410001092470367C0813F29F480914703181613
:10542000BCF360C090914603823F29F497FF5AC0B5
:105430001092460357C0833F19F41916CCF352C09B
:1054400090914803893F31F419160CF04BC010922B
:10545000480348C08A3F19F497FF44C0F8CF8B3FF8
:1054600039F48091490387FF3DC0109249033AC047
:105470008C3F29F4809149031816BCF333C0843F54
:1054800021F4809145038E7F17C0853F21F48091E0
:1054900045038D7F11C0863F21F4809145038B7FAA
:1054A0000BC0873F21F480914503877F05C0883F6B
:1054B00031F4809145038F7E8093450313C08D3F67
:1054C00021F480913F038E7F0BC08E3F21F48091A9
:1054D0003F038D7F05C08F3F29F480913F038B7F71
:1054E00080933F0380914603811106C0809147035A
:1054F000811102C010923E0380914803811106C0C1
:1055000080914903811102C010923D03089580915A
:105510003F0380FF08C06091100170E075956795AA
:105520007595679521C081FF06C06091100170E0FC
:105530007595679519C082FF04C06091100170E0F5
:1055400010C090913D03992399F060910F01961737
:10555000A0F780911001899FC001112470E00E9482
:10556000BD336038710540F46115710519F406C04A
:1055700061E070E0862F08958FE7089581E0089537
:1055800080913F03209112033091130380FF0CC0E0
:1055900080911401829FB001839F700D1124769534
:1055A0006795769567952FC081FF0AC08091140199
:1055B000829FB001839F700D11247695679523C05B
:1055C00082FF08C080911401829FB001839F700DFB
:1055D000112419C040913E03411102C0B90113C00A
:1055E00060911301461770F780911401849FA00108
:1055F0001124429FC001439F900D529F900D112492
:1056000070E00E94A9336038710528F461157105B6
:1056100021F0862F08958FE7089581E00895803F57
:1056200021F40E94C02A819504C0813F29F40E9480
:10563000C02A809347030895823F21F40E94C02A24
:10564000819504C0833F29F40E94C02A80934603B9
:105650000895893F19F40E94872A05C08A3F31F4D2
:105660000E94872A81958093480308958B3F21F4F7
:105670000E94872A819504C08C3F29F40E94872AC2
:10568000809349030895843F21F48091450381600C
:1056900017C0853F21F480914503826011C0863F89
:1056A00021F48091450384600BC0873F21F48091F1
:1056B0004503886005C0883F31F4809145038061CF
:1056C0008093450308958D3F21F480913F038160CD
:1056D0000BC08E3F21F480913F03826005C08F3F55
:1056E00029F480913F03846080933F0308950895D7
:1056F000CF93DF9300D000D01F92CDB7DEB7909349
:10570000390280933802811520E2920748F40F9005
:105710000F900F900F900F90DF91CF910C940D335D
:105720008EEF89838A831B820E94D7228160782F23
:105730009D838C8349815A816B818D810E94A63023
:105740000F900F900F900F900F90DF91CF910895D1
:10575000CF93DF9300D000D01F92CDB7DEB79093E8
:10576000390280933802811520E2920748F40F90A5
:105770000F900F900F900F90DF91CF910C942733E3
:105780008EEF89838A8381E08B830E94D722816098
:10579000782F9D838C8349815A816B818D810E94F2
:1057A000A6300F900F900F900F900F90DF91CF9138
:1057B0000895EF92FF920F931F93CF93DF938C0185
:1057C000C5E5D3E0E12CF12CF8018481E114F1046A
:1057D00019F4882339F002C0811104C09E01409160
:1057E0005E0302C09E0140E060915D0380915C0316
:1057F0000E94FD27FFEFEF1AFF0A239682E0E816CA
:10580000F10411F70E945E27F801848190E001966F
:10581000817099278483DF91CF911F910F91FF9021
:10582000EF9008958F929F92AF92BF92CF92DF92A6
:10583000EF92FF920F931F93CF93DF93EC014C8174
:10584000042F10E09801D8010E9408349B01AC019C
:105850000E941E346B017C01E0E2F0E0E01BF10BE2
:10586000A5E5B0E09B01AC010E941E344B015C0138
:105870009F01DF010E9400349B01AC010E9429348A
:105880009B01AC012C0D3D1D4E1D5F1DC501B401DA
:105890000E94D1332A3228F483E0289FA0011124EA
:1058A0000DC045E550E0421B5109CA01880F991F00
:1058B000480F591F57FF02C04F5F5F4F55954795DF
:1058C000142F109505E5021BF0905D0325E533E0EC
:1058D000412F6F2D802F0E94FD2728E533E0412FB7
:1058E0006F2D802F0E94FD270E945E278C818111E1
:1058F00002C091E003C0803219F49FEF9093280119
:1059000090912801890F8C83DF91CF911F910F9186
:10591000FF90EF90DF90CF90BF90AF909F908F90CF
:1059200008950F931F93CF93DF9310925603109215
:105930005503109257031092590310925803109276
:105940005A03C5E5D3E000E010E080915303082E30
:10595000000C990B0817190794F080912701082E65
:10596000000C990B8017910754F09E0140915E0343
:1059700060915D0380915C030E94FD2703C0198242
:1059800018821A820F5F1F4F239602301105E9F625
:105990000E945E278091260190915303980F909367
:1059A000530320912701280F20932701121614F486
:1059B00019161CF4819580932601DF91CF911F91D8
:1059C0000F910895CF92DF92EF92FF920F931F9362
:1059D000CF93DF93FC01828180FF02C01FEF01C0E3
:1059E00011E0C5E5D3E0E12CF12C198218821A826E
:1059F00094E0C92ED12C00E080915203800F8330B7
:105A000014F0817002C087FD8E5F082E000C990B88
:105A1000E816F90691F480915E038C9DA0018D9D9E
:105A2000500D112455954795559547959E016091C8
:105A30005D0380915C030E94FD27010FF1E0CF1A06
:105A4000D108D1F68FEFE81AF80A2396E2E0EE16B5
:105A5000F10459F60E945E2780915203113039F407
:105A6000811103C01093520308C0815004C090E01C
:105A700001968170992780935203DF91CF911F91F6
:105A80000F91FF90EF90DF90CF9008950F931F93A9
:105A9000CF93DF93EC0100915E0310915D0325E548
:105AA00033E0402F612F8C810E94FD278C8128E5F7
:105AB00033E0402F612F81580E94FD270E945E270E
:105AC0009A818C8190FF02C08F5F01C081508C83CE
:105AD000DF91CF911F910F9108950F931F93CF9353
